{
  "_format": "hh-sol-artifact-1",
  "contractName": "RegisterJson",
  "sourceName": "contracts/jsonValidator.sol",
  "abi": [
    {
      "inputs": [
        {
          "internalType": "string",
          "name": "_jsonString",
          "type": "string"
        }
      ],
      "stateMutability": "nonpayable",
      "type": "constructor"
    },
    {
      "inputs": [
        {
          "internalType": "string",
          "name": "_jsonString",
          "type": "string"
        }
      ],
      "name": "compareJson",
      "outputs": [
        {
          "internalType": "bool",
          "name": "",
          "type": "bool"
        }
      ],
      "stateMutability": "view",
      "type": "function"
    },
    {
      "inputs": [],
      "name": "getJson",
      "outputs": [
        {
          "internalType": "string",
          "name": "",
          "type": "string"
        }
      ],
      "stateMutability": "view",
      "type": "function"
    },
    {
      "inputs": [
        {
          "internalType": "string",
          "name": "_jsonString",
          "type": "string"
        }
      ],
      "name": "setJson",
      "outputs": [],
      "stateMutability": "nonpayable",
      "type": "function"
    }
  ],
  "bytecode": "0x60806040523480156200001157600080fd5b50604051620009da380380620009da8339818101604052810190620000379190620002a4565b80600090805190602001906200004f92919062000057565b50506200035a565b828054620000659062000324565b90600052602060002090601f016020900481019282620000895760008555620000d5565b82601f10620000a457805160ff1916838001178555620000d5565b82800160010185558215620000d5579182015b82811115620000d4578251825591602001919060010190620000b7565b5b509050620000e49190620000e8565b5090565b5b8082111562000103576000816000905550600101620000e9565b5090565b6000604051905090565b600080fd5b600080fd5b600080fd5b600080fd5b6000601f19601f8301169050919050565b7f4e487b7100000000000000000000000000000000000000000000000000000000600052604160045260246000fd5b620001708262000125565b810181811067ffffffffffffffff8211171562000192576200019162000136565b5b80604052505050565b6000620001a762000107565b9050620001b5828262000165565b919050565b600067ffffffffffffffff821115620001d857620001d762000136565b5b620001e38262000125565b9050602081019050919050565b60005b8381101562000210578082015181840152602081019050620001f3565b8381111562000220576000848401525b50505050565b60006200023d6200023784620001ba565b6200019b565b9050828152602081018484840111156200025c576200025b62000120565b5b62000269848285620001f0565b509392505050565b600082601f8301126200028957620002886200011b565b5b81516200029b84826020860162000226565b91505092915050565b600060208284031215620002bd57620002bc62000111565b5b600082015167ffffffffffffffff811115620002de57620002dd62000116565b5b620002ec8482850162000271565b91505092915050565b7f4e487b7100000000000000000000000000000000000000000000000000000000600052602260045260246000fd5b600060028204905060018216806200033d57607f821691505b60208210811415620003545762000353620002f5565b5b50919050565b610670806200036a6000396000f3fe608060405234801561001057600080fd5b50600436106100415760003560e01c8063396765a814610046578063be9a2e8714610062578063f703db3914610092575b600080fd5b610060600480360381019061005b91906103b2565b6100b0565b005b61007c600480360381019061007791906103b2565b6100ca565b6040516100899190610416565b60405180910390f35b61009a610123565b6040516100a791906104b9565b60405180910390f35b80600090805190602001906100c69291906101b5565b5050565b6000816040516020016100dd9190610517565b6040516020818303038152906040528051906020012060006040516020016101059190610623565b60405160208183030381529060405280519060200120149050919050565b6060600080546101329061055d565b80601f016020809104026020016040519081016040528092919081815260200182805461015e9061055d565b80156101ab5780601f10610180576101008083540402835291602001916101ab565b820191906000526020600020905b81548152906001019060200180831161018e57829003601f168201915b5050505050905090565b8280546101c19061055d565b90600052602060002090601f0160209004810192826101e3576000855561022a565b82601f106101fc57805160ff191683800117855561022a565b8280016001018555821561022a579182015b8281111561022957825182559160200191906001019061020e565b5b509050610237919061023b565b5090565b5b8082111561025457600081600090555060010161023c565b5090565b6000604051905090565b600080fd5b600080fd5b600080fd5b600080fd5b6000601f19601f8301169050919050565b7f4e487b7100000000000000000000000000000000000000000000000000000000600052604160045260246000fd5b6102bf82610276565b810181811067ffffffffffffffff821117156102de576102dd610287565b5b80604052505050565b60006102f1610258565b90506102fd82826102b6565b919050565b600067ffffffffffffffff82111561031d5761031c610287565b5b61032682610276565b9050602081019050919050565b82818337600083830152505050565b600061035561035084610302565b6102e7565b90508281526020810184848401111561037157610370610271565b5b61037c848285610333565b509392505050565b600082601f8301126103995761039861026c565b5b81356103a9848260208601610342565b91505092915050565b6000602082840312156103c8576103c7610262565b5b600082013567ffffffffffffffff8111156103e6576103e5610267565b5b6103f284828501610384565b91505092915050565b60008115159050919050565b610410816103fb565b82525050565b600060208201905061042b6000830184610407565b92915050565b600081519050919050565b600082825260208201905092915050565b60005b8381101561046b578082015181840152602081019050610450565b8381111561047a576000848401525b50505050565b600061048b82610431565b610495818561043c565b93506104a581856020860161044d565b6104ae81610276565b840191505092915050565b600060208201905081810360008301526104d38184610480565b905092915050565b600081905092915050565b60006104f182610431565b6104fb81856104db565b935061050b81856020860161044d565b80840191505092915050565b600061052382846104e6565b915081905092915050565b7f4e487b7100000000000000000000000000000000000000000000000000000000600052602260045260246000fd5b6000600282049050600182168061057557607f821691505b602082108114156105895761058861052e565b5b50919050565b60008190508160005260206000209050919050565b600081546105b18161055d565b6105bb81866104db565b945060018216600081146105d657600181146105e75761061a565b60ff1983168652818601935061061a565b6105f08561058f565b60005b83811015610612578154818901526001820191506020810190506105f3565b838801955050505b50505092915050565b600061062f82846105a4565b91508190509291505056fea264697066735822122018d1ca7bb4bf708df23ea188d323d15cb947e2d6441b80acf6393bb62206568764736f6c63430008090033",
  "linkReferences": {},
  "deployedLinkReferences": {}
}