{
  "_format": "hh-sol-artifact-1",
  "contractName": "Offer",
  "sourceName": "contracts/offer.sol",
  "abi": [
    {
      "inputs": [
        {
          "internalType": "uint256",
          "name": "_value",
          "type": "uint256"
        }
      ],
      "stateMutability": "payable",
      "type": "constructor"
    },
    {
      "anonymous": false,
      "inputs": [
        {
          "indexed": false,
          "internalType": "uint256",
          "name": "amount",
          "type": "uint256"
        },
        {
          "indexed": false,
          "internalType": "uint256",
          "name": "when",
          "type": "uint256"
        }
      ],
      "name": "Withdrawal",
      "type": "event"
    },
    {
      "inputs": [],
      "name": "accept",
      "outputs": [],
      "stateMutability": "nonpayable",
      "type": "function"
    },
    {
      "inputs": [],
      "name": "buyer",
      "outputs": [
        {
          "internalType": "address payable",
          "name": "",
          "type": "address"
        }
      ],
      "stateMutability": "view",
      "type": "function"
    },
    {
      "inputs": [],
      "name": "cancel",
      "outputs": [],
      "stateMutability": "nonpayable",
      "type": "function"
    },
    {
      "inputs": [
        {
          "internalType": "bytes",
          "name": "signature",
          "type": "bytes"
        }
      ],
      "name": "claim",
      "outputs": [],
      "stateMutability": "nonpayable",
      "type": "function"
    },
    {
      "inputs": [],
      "name": "expiryDate",
      "outputs": [
        {
          "internalType": "uint256",
          "name": "",
          "type": "uint256"
        }
      ],
      "stateMutability": "view",
      "type": "function"
    },
    {
      "inputs": [
        {
          "internalType": "bytes32",
          "name": "_messageHash",
          "type": "bytes32"
        }
      ],
      "name": "getEthSignedMessageHash",
      "outputs": [
        {
          "internalType": "bytes32",
          "name": "",
          "type": "bytes32"
        }
      ],
      "stateMutability": "pure",
      "type": "function"
    },
    {
      "inputs": [
        {
          "internalType": "string",
          "name": "_message",
          "type": "string"
        }
      ],
      "name": "getMessageHash",
      "outputs": [
        {
          "internalType": "bytes32",
          "name": "",
          "type": "bytes32"
        }
      ],
      "stateMutability": "pure",
      "type": "function"
    },
    {
      "inputs": [],
      "name": "id",
      "outputs": [
        {
          "internalType": "string",
          "name": "",
          "type": "string"
        }
      ],
      "stateMutability": "view",
      "type": "function"
    },
    {
      "inputs": [],
      "name": "owner",
      "outputs": [
        {
          "internalType": "address payable",
          "name": "",
          "type": "address"
        }
      ],
      "stateMutability": "view",
      "type": "function"
    },
    {
      "inputs": [
        {
          "internalType": "bytes32",
          "name": "_ethSignedMessageHash",
          "type": "bytes32"
        },
        {
          "internalType": "bytes",
          "name": "_signature",
          "type": "bytes"
        }
      ],
      "name": "recoverSigner",
      "outputs": [
        {
          "internalType": "address",
          "name": "",
          "type": "address"
        }
      ],
      "stateMutability": "pure",
      "type": "function"
    },
    {
      "inputs": [
        {
          "internalType": "bytes",
          "name": "sig",
          "type": "bytes"
        }
      ],
      "name": "splitSignature",
      "outputs": [
        {
          "internalType": "bytes32",
          "name": "r",
          "type": "bytes32"
        },
        {
          "internalType": "bytes32",
          "name": "s",
          "type": "bytes32"
        },
        {
          "internalType": "uint8",
          "name": "v",
          "type": "uint8"
        }
      ],
      "stateMutability": "pure",
      "type": "function"
    },
    {
      "inputs": [],
      "name": "value",
      "outputs": [
        {
          "internalType": "uint256",
          "name": "",
          "type": "uint256"
        }
      ],
      "stateMutability": "view",
      "type": "function"
    },
    {
      "inputs": [
        {
          "internalType": "address",
          "name": "_signer",
          "type": "address"
        },
        {
          "internalType": "string",
          "name": "_message",
          "type": "string"
        },
        {
          "internalType": "bytes",
          "name": "signature",
          "type": "bytes"
        }
      ],
      "name": "verify",
      "outputs": [
        {
          "internalType": "bool",
          "name": "",
          "type": "bool"
        }
      ],
      "stateMutability": "pure",
      "type": "function"
    }
  ],
  "bytecode": "0x6080604052738963e134e6d22ee9a26ac62a99964ab391ead816600560006101000a81548173ffffffffffffffffffffffffffffffffffffffff021916908373ffffffffffffffffffffffffffffffffffffffff160217905550604051620015713803806200157183398181016040528101906200007e919062000123565b80600381905550610e104262000095919062000184565b60008190555033600160006101000a81548173ffffffffffffffffffffffffffffffffffffffff021916908373ffffffffffffffffffffffffffffffffffffffff16021790555050620001e1565b600080fd5b6000819050919050565b620000fd81620000e8565b81146200010957600080fd5b50565b6000815190506200011d81620000f2565b92915050565b6000602082840312156200013c576200013b620000e3565b5b60006200014c848285016200010c565b91505092915050565b7f4e487b7100000000000000000000000000000000000000000000000000000000600052601160045260246000fd5b60006200019182620000e8565b91506200019e83620000e8565b9250827fffffffffffffffffffffffffffffffffffffffffffffffffffffffffffffffff03821115620001d657620001d562000155565b5b828201905092915050565b61138080620001f16000396000f3fe608060405234801561001057600080fd5b50600436106100cf5760003560e01c806397aba7f91161008c578063b446f3b211610066578063b446f3b214610206578063c63ff8dd14610236578063ea8a1af014610252578063fa5408011461025c576100cf565b806397aba7f914610186578063a7bb5803146101b6578063af640d0f146101e8576100cf565b80632852b71c146100d45780632dd34f0f146100de5780633fa4f2451461010e578063516dde431461012c5780637150d8ae1461014a5780638da5cb5b14610168575b600080fd5b6100dc61028c565b005b6100f860048036038101906100f39190610bf7565b610306565b6040516101059190610c9d565b60405180910390f35b610116610364565b6040516101239190610cd1565b60405180910390f35b61013461036a565b6040516101419190610cd1565b60405180910390f35b610152610370565b60405161015f9190610d0d565b60405180910390f35b610170610396565b60405161017d9190610d0d565b60405180910390f35b6101a0600480360381019061019b9190610d5e565b6103bc565b6040516101ad9190610dc9565b60405180910390f35b6101d060048036038101906101cb9190610de4565b61042b565b6040516101df93929190610e58565b60405180910390f35b6101f0610493565b6040516101fd9190610f17565b60405180910390f35b610220600480360381019061021b9190610f39565b610521565b60405161022d9190610f82565b60405180910390f35b610250600480360381019061024b9190610de4565b610551565b005b61025a610789565b005b61027660048036038101906102719190610f9d565b6108cb565b6040516102839190610f82565b60405180910390f35b33600260006101000a81548173ffffffffffffffffffffffffffffffffffffffff021916908373ffffffffffffffffffffffffffffffffffffffff16021790555043406040516020016102df9190610feb565b604051602081830303815290604052600490805190602001906103039291906108fb565b50565b60008061031284610521565b9050600061031f826108cb565b90508573ffffffffffffffffffffffffffffffffffffffff1661034282866103bc565b73ffffffffffffffffffffffffffffffffffffffff1614925050509392505050565b60035481565b60005481565b600260009054906101000a900473ffffffffffffffffffffffffffffffffffffffff1681565b600160009054906101000a900473ffffffffffffffffffffffffffffffffffffffff1681565b6000806000806103cb8561042b565b925092509250600186828585604051600081526020016040526040516103f49493929190611006565b6020604051602081039080840390855afa158015610416573d6000803e3d6000fd5b50505060206040510351935050505092915050565b60008060006041845114610474576040517f08c379a000000000000000000000000000000000000000000000000000000000815260040161046b90611097565b60405180910390fd5b6020840151925060408401519150606084015160001a90509193909250565b600480546104a0906110e6565b80601f01602080910402602001604051908101604052809291908181526020018280546104cc906110e6565b80156105195780601f106104ee57610100808354040283529160200191610519565b820191906000526020600020905b8154815290600101906020018083116104fc57829003601f168201915b505050505081565b6000816040516020016105349190611154565b604051602081830303815290604052805190602001209050919050565b600054421080156105af5750600260009054906101000a900473ffffffffffffffffffffffffffffffffffffffff1673ffffffffffffffffffffffffffffffffffffffff163373ffffffffffffffffffffffffffffffffffffffff16145b6105ee576040517f08c379a00000000000000000000000000000000000000000000000000000000081526004016105e5906111b7565b60405180910390fd5b6106a5600560009054906101000a900473ffffffffffffffffffffffffffffffffffffffff1660048054610621906110e6565b80601f016020809104026020016040519081016040528092919081815260200182805461064d906110e6565b801561069a5780601f1061066f5761010080835404028352916020019161069a565b820191906000526020600020905b81548152906001019060200180831161067d57829003601f168201915b505050505083610306565b6106e4576040517f08c379a00000000000000000000000000000000000000000000000000000000081526004016106db90611223565b60405180910390fd5b7fbf2ed60bd5b5965d685680c01195c9514e4382e28e3a5a2d2d5244bf59411b934742604051610715929190611243565b60405180910390a1600260009054906101000a900473ffffffffffffffffffffffffffffffffffffffff1673ffffffffffffffffffffffffffffffffffffffff166108fc479081150290604051600060405180830381858888f19350505050158015610785573d6000803e3d6000fd5b5050565b60005442101580156107e85750600160009054906101000a900473ffffffffffffffffffffffffffffffffffffffff1673ffffffffffffffffffffffffffffffffffffffff163373ffffffffffffffffffffffffffffffffffffffff16145b610827576040517f08c379a000000000000000000000000000000000000000000000000000000000815260040161081e906112b8565b60405180910390fd5b7fbf2ed60bd5b5965d685680c01195c9514e4382e28e3a5a2d2d5244bf59411b934742604051610858929190611243565b60405180910390a1600160009054906101000a900473ffffffffffffffffffffffffffffffffffffffff1673ffffffffffffffffffffffffffffffffffffffff166108fc479081150290604051600060405180830381858888f193505050501580156108c8573d6000803e3d6000fd5b50565b6000816040516020016108de9190611324565b604051602081830303815290604052805190602001209050919050565b828054610907906110e6565b90600052602060002090601f0160209004810192826109295760008555610970565b82601f1061094257805160ff1916838001178555610970565b82800160010185558215610970579182015b8281111561096f578251825591602001919060010190610954565b5b50905061097d9190610981565b5090565b5b8082111561099a576000816000905550600101610982565b5090565b6000604051905090565b600080fd5b600080fd5b600073ffffffffffffffffffffffffffffffffffffffff82169050919050565b60006109dd826109b2565b9050919050565b6109ed816109d2565b81146109f857600080fd5b50565b600081359050610a0a816109e4565b92915050565b600080fd5b600080fd5b6000601f19601f8301169050919050565b7f4e487b7100000000000000000000000000000000000000000000000000000000600052604160045260246000fd5b610a6382610a1a565b810181811067ffffffffffffffff82111715610a8257610a81610a2b565b5b80604052505050565b6000610a9561099e565b9050610aa18282610a5a565b919050565b600067ffffffffffffffff821115610ac157610ac0610a2b565b5b610aca82610a1a565b9050602081019050919050565b82818337600083830152505050565b6000610af9610af484610aa6565b610a8b565b905082815260208101848484011115610b1557610b14610a15565b5b610b20848285610ad7565b509392505050565b600082601f830112610b3d57610b3c610a10565b5b8135610b4d848260208601610ae6565b91505092915050565b600067ffffffffffffffff821115610b7157610b70610a2b565b5b610b7a82610a1a565b9050602081019050919050565b6000610b9a610b9584610b56565b610a8b565b905082815260208101848484011115610bb657610bb5610a15565b5b610bc1848285610ad7565b509392505050565b600082601f830112610bde57610bdd610a10565b5b8135610bee848260208601610b87565b91505092915050565b600080600060608486031215610c1057610c0f6109a8565b5b6000610c1e868287016109fb565b935050602084013567ffffffffffffffff811115610c3f57610c3e6109ad565b5b610c4b86828701610b28565b925050604084013567ffffffffffffffff811115610c6c57610c6b6109ad565b5b610c7886828701610bc9565b9150509250925092565b60008115159050919050565b610c9781610c82565b82525050565b6000602082019050610cb26000830184610c8e565b92915050565b6000819050919050565b610ccb81610cb8565b82525050565b6000602082019050610ce66000830184610cc2565b92915050565b6000610cf7826109b2565b9050919050565b610d0781610cec565b82525050565b6000602082019050610d226000830184610cfe565b92915050565b6000819050919050565b610d3b81610d28565b8114610d4657600080fd5b50565b600081359050610d5881610d32565b92915050565b60008060408385031215610d7557610d746109a8565b5b6000610d8385828601610d49565b925050602083013567ffffffffffffffff811115610da457610da36109ad565b5b610db085828601610bc9565b9150509250929050565b610dc3816109d2565b82525050565b6000602082019050610dde6000830184610dba565b92915050565b600060208284031215610dfa57610df96109a8565b5b600082013567ffffffffffffffff811115610e1857610e176109ad565b5b610e2484828501610bc9565b91505092915050565b610e3681610d28565b82525050565b600060ff82169050919050565b610e5281610e3c565b82525050565b6000606082019050610e6d6000830186610e2d565b610e7a6020830185610e2d565b610e876040830184610e49565b949350505050565b600081519050919050565b600082825260208201905092915050565b60005b83811015610ec9578082015181840152602081019050610eae565b83811115610ed8576000848401525b50505050565b6000610ee982610e8f565b610ef38185610e9a565b9350610f03818560208601610eab565b610f0c81610a1a565b840191505092915050565b60006020820190508181036000830152610f318184610ede565b905092915050565b600060208284031215610f4f57610f4e6109a8565b5b600082013567ffffffffffffffff811115610f6d57610f6c6109ad565b5b610f7984828501610b28565b91505092915050565b6000602082019050610f976000830184610e2d565b92915050565b600060208284031215610fb357610fb26109a8565b5b6000610fc184828501610d49565b91505092915050565b6000819050919050565b610fe5610fe082610d28565b610fca565b82525050565b6000610ff78284610fd4565b60208201915081905092915050565b600060808201905061101b6000830187610e2d565b6110286020830186610e49565b6110356040830185610e2d565b6110426060830184610e2d565b95945050505050565b7f696e76616c6964207369676e6174757265206c656e6774680000000000000000600082015250565b6000611081601883610e9a565b915061108c8261104b565b602082019050919050565b600060208201905081810360008301526110b081611074565b9050919050565b7f4e487b7100000000000000000000000000000000000000000000000000000000600052602260045260246000fd5b600060028204905060018216806110fe57607f821691505b60208210811415611112576111116110b7565b5b50919050565b600081905092915050565b600061112e82610e8f565b6111388185611118565b9350611148818560208601610eab565b80840191505092915050565b60006111608284611123565b915081905092915050565b7f596f75206172656e277420746865206275796572000000000000000000000000600082015250565b60006111a1601483610e9a565b91506111ac8261116b565b602082019050919050565b600060208201905081810360008301526111d081611194565b9050919050565b7f496e76616c6964207369676e6174757265000000000000000000000000000000600082015250565b600061120d601183610e9a565b9150611218826111d7565b602082019050919050565b6000602082019050818103600083015261123c81611200565b9050919050565b60006040820190506112586000830185610cc2565b6112656020830184610cc2565b9392505050565b7f596f752063616e27742063616e63656c20796574000000000000000000000000600082015250565b60006112a2601483610e9a565b91506112ad8261126c565b602082019050919050565b600060208201905081810360008301526112d181611295565b9050919050565b7f19457468657265756d205369676e6564204d6573736167653a0a333200000000600082015250565b600061130e601c83611118565b9150611319826112d8565b601c82019050919050565b600061132f82611301565b915061133b8284610fd4565b6020820191508190509291505056fea26469706673582212204472cf5573f0f3e4eff9452140d5792f76c0754d2a1c6d19ff9d1608d04d0bf864736f6c63430008090033",
  "linkReferences": {},
  "deployedLinkReferences": {}
}