{
  "_format": "hh-sol-artifact-1",
  "contractName": "Counter",
  "sourceName": "contracts/counter.sol",
  "abi": [
    {
      "inputs": [],
      "name": "getCount",
      "outputs": [
        {
          "internalType": "uint256",
          "name": "",
          "type": "uint256"
        }
      ],
      "stateMutability": "view",
      "type": "function"
    },
    {
      "inputs": [],
      "name": "incrementCounter",
      "outputs": [],
      "stateMutability": "nonpayable",
      "type": "function"
    }
  ],
  "bytecode": "0x60806040526000805534801561001457600080fd5b50610176806100246000396000f3fe608060405234801561001057600080fd5b50600436106100365760003560e01c80635b34b9661461003b578063a87d942c14610045575b600080fd5b610043610063565b005b61004d61007e565b60405161005a91906100a0565b60405180910390f35b600160008082825461007591906100ea565b92505081905550565b60008054905090565b6000819050919050565b61009a81610087565b82525050565b60006020820190506100b56000830184610091565b92915050565b7f4e487b7100000000000000000000000000000000000000000000000000000000600052601160045260246000fd5b60006100f582610087565b915061010083610087565b9250827fffffffffffffffffffffffffffffffffffffffffffffffffffffffffffffffff03821115610135576101346100bb565b5b82820190509291505056fea2646970667358221220e56756dc7ed7caeb0f4d22c2f757ca6331b3c94ba006900cee6c7e5f9a1f354964736f6c63430008090033",
  "linkReferences": {},
  "deployedLinkReferences": {}
}